:0600000000F0F1EF09F031
:10060000004368616E67652050617373776F726431
:100610003F0050617373776F7264204368616E6747
:1006200065640043757272656E74205061737377F0
:100630006F726400416363657373204772616E7407
:10064000656400456E7465722050617373776F72D4
:100650006400456E746572204E657720436F646553
:10066000004163636573732044656E69656400448B
:100670006F6F7220556E6C6F636B65640057656CAD
:10068000636F6D652E2E2E005072657373202A20C5
:10069000005072657373202300496E76616C696443
:1006A0000000FFFF000E1E6E0A0E1D6E51EF05F0DA
:1006B000FFFF828E829C829A83A061EF03F064EF39
:1006C00003F0FFFF83EF03F0FFFF83B26AEF03F055
:1006D0006DEF03F0FFFF83EF03F0FFFF83B473EFD1
:1006E00003F076EF03F0FFFF83EF03F0FFFF83B625
:1006F0007CEF03F07FEF03F0FFFF83EF03F0FFFFDA
:10070000310E5DEF05F0FFFF83B089EF03F08CEF52
:1007100003F0FFFFABEF03F0FFFF83A292EF03F0C4
:1007200095EF03F0FFFFABEF03F0FFFF83B49BEF08
:1007300003F09EEF03F0FFFFABEF03F0FFFF83B684
:10074000A4EF03F0A7EF03F0FFFFABEF03F0FFFF11
:10075000340E5DEF05F0FFFF83B0B1EF03F0B4EFAF
:1007600003F0FFFFD3EF03F0FFFF83B2BAEF03F014
:10077000BDEF03F0FFFFD3EF03F0FFFF83A4C3EF50
:1007800003F0C6EF03F0FFFFD3EF03F0FFFF83B6E4
:10079000CCEF03F0CFEF03F0FFFFD3EF03F0FFFF49
:1007A000370E5DEF05F0FFFF83B0D9EF03F0DCEF0C
:1007B00003F0FFFFFBEF03F0FFFF83B2E2EF03F074
:1007C000E5EF03F0FFFFFBEF03F0FFFF83B4EBEF78
:1007D00003F0EEEF03F0FFFFFBEF03F0FFFF83A654
:1007E000F4EF03F0F7EF03F0FFFFFBEF03F0FFFF81
:1007F0002A0E5DEF05F0FFFF190E016E5D0EFFFF83
:10080000E82EFDD7012EFBD7829E828C829A83A090
:100810000CEF04F00FEF04F0FFFF2EEF04F0FFFFEA
:1008200083B215EF04F018EF04F0FFFF2EEF04F091
:10083000FFFF83B41EEF04F021EF04F0FFFF2EEF63
:1008400004F0FFFF83B627EF04F02AEF04F0FFFF68
:100850002EEF04F0FFFF320E5DEF05F0FFFF83B0D7
:1008600034EF04F037EF04F0FFFF56EF04F0FFFF22
:1008700083A23DEF04F040EF04F0FFFF56EF04F0D9
:10088000FFFF83B446EF04F049EF04F0FFFF56EF9B
:1008900004F0FFFF83B64FEF04F052EF04F0FFFFC8
:1008A00056EF04F0FFFF350E5DEF05F0FFFF83B05C
:1008B0005CEF04F05FEF04F0FFFF7EEF04F0FFFF5A
:1008C00083B265EF04F068EF04F0FFFF7EEF04F001
:1008D000FFFF83A46EEF04F071EF04F0FFFF7EEFE3
:1008E00004F0FFFF83B677EF04F07AEF04F0FFFF28
:1008F0007EEF04F0FFFF380E5DEF05F0FFFF83B0E1
:1009000084EF04F087EF04F0FFFFA6EF04F0FFFF91
:1009100083B28DEF04F090EF04F0FFFFA6EF04F038
:10092000FFFF83B496EF04F099EF04F0FFFFA6EF0A
:1009300004F0FFFF83A69FEF04F0A2EF04F0FFFF97
:10094000A6EF04F0FFFF300E5DEF05F0FFFF190E7C
:10095000016E5D0EFFFFE82EFDD7012EFBD7829EB4
:10096000829C828A83A0B7EF04F0BAEF04F0FFFF05
:10097000D9EF04F0FFFF83B2C0EF04F0C3EF04F03F
:10098000FFFFD9EF04F0FFFF83B4C9EF04F0CCEF11
:1009900004F0FFFFD9EF04F0FFFF83B6D2EF04F0BD
:1009A000D5EF04F0FFFFD9EF04F0FFFF330E5DEF4A
:1009B00005F0FFFF83B0DFEF04F0E2EF04F0FFFF8C
:1009C00001EF05F0FFFF83A2E8EF04F0EBEF04F086
:1009D000FFFF01EF05F0FFFF83B4F1EF04F0F4EF48
:1009E00004F0FFFF01EF05F0FFFF83B6FAEF04F01C
:1009F000FDEF04F0FFFF01EF05F0FFFF360E5DEFA6
:100A000005F0FFFF83B007EF05F00AEF05F0FFFFE9
:100A100029EF05F0FFFF83B210EF05F013EF05F0AB
:100A2000FFFF29EF05F0FFFF83A419EF05F01CEF8E
:100A300005F0FFFF29EF05F0FFFF83B622EF05F079
:100A400025EF05F0FFFF29EF05F0FFFF390E5DEF01
:100A500005F0FFFF83B02FEF05F032EF05F0FFFF49
:100A600051EF05F0FFFF83B238EF05F03BEF05F0E3
:100A7000FFFF51EF05F0FFFF83B441EF05F044EFB6
:100A800005F0FFFF51EF05F0FFFF83A64AEF05F0E9
:100A90004DEF05F0FFFF51EF05F0FFFF230E5DEF77
:100AA00005F0FFFF0A0E1D181E10D8B45AEF05F00E
:100AB0005DEF05F0FFFF58EF03F0FFFF1200FFFFAF
:100AC000FFFF0F0E956E000E936E010E946EACEC50
:100AD00007F06FEC09F024EC0AF0030E036E020E2F
:100AE000C7EC08F07D0E096E060E0A6E3CEC09F0AC
:100AF000010E126EF40E116EA80EFFFFE82EFDD748
:100B0000112EFBD7122EF9D700D0FFFF000E1E6E5C
:100B10000A0E1D6E829482968CEC08F024EC0AF08A
:100B2000050E036E020EC7EC08F0910E096E060E5C
:100B30000A6E3CEC09F0FFFF51EC03F0146E230E3B
:100B40001418D8A4A6EF05F0A9EF05F0FFFF9BEF5E
:100B500005F0FFFF7A0E116ED40EFFFFE82EFDD7D1
:100B6000112EFBD700D024EC0AF0010E036E010E0B
:100B7000C7EC08F0430E096E060E0A6E3CEC09F055
:100B800002EC09F015501918D8A4C9EF05F0CCEF04
:100B900005F0FFFF40EF06F0FFFF16501A18D8A42B
:100BA000D4EF05F0D7EF05F0FFFF40EF06F0FFFFB1
:100BB00017501B18D8A4DFEF05F0E2EF05F0FFFF98
:100BC00040EF06F0FFFF18501C18D8A4EAEF05F01C
:100BD000EDEF05F0FFFF40EF06F0FFFF000E206E87
:100BE000000E1F6E24EC0AF0010E036E010EC7EC1E
:100BF00008F0340E096E060E0A6E3CEC09F0010E88
:100C0000036E020EC7EC08F06F0E096E060E0A6E38
:100C10003CEC09F082884A0E116E180EFFFFE82E98
:100C2000FDD7112EFBD700D0829882848296030EC6
:100C3000126E620E116E260EFFFFE82EFDD7112EEA
:100C4000FBD7122EF9D700D08294FFFF82A02BEFA2
:100C500006F02EEF06F0FFFF25EF06F0FFFF828281
:100C6000030E126E620E116E260EFFFFE82EFDD7E8
:100C7000112EFBD7122EF9D700D08292D1EF06F0B9
:100C8000FFFF300E1918D8A448EF06F04BEF06F01E
:100C9000FFFFA0EF06F0FFFF300E1A18D8A453EFA5
:100CA00006F056EF06F0FFFFA0EF06F0FFFF300E54
:100CB0001B18D8A45EEF06F061EF06F0FFFFA0EF6F
:100CC00006F0FFFF300E1C18D8A469EF06F06CEF99
:100CD00006F0FFFFA0EF06F0FFFF000E206E000EF3
:100CE0001F6E24EC0AF0010E036E010EC7EC08F033
:100CF000010E096E060E0A6E3CEC09F0010E036E41
:100D0000020EC7EC08F0880E096E060E0A6E3CEC67
:100D100009F051EC03F0136E2A0E1318D8B493EFB8
:100D200006F096EF06F0FFFF99EF06F0FFFF85EF64
:100D300005F0FFFF8286FFEC06F0829685EF05F056
:100D4000FFFF24EC0AF0010E036E010EC7EC08F061
:100D5000610E096E060E0A6E3CEC09F082948286E2
:100D600082884A0E116E180EFFFFE82EFDD7112E55
:100D7000FBD700D082984A0E116E180EFFFFE82EA6
:100D8000FDD7112EFBD700D082884A0E116E180EA7
:100D9000FFFFE82EFDD7112EFBD700D082981F4A07
:100DA000202AFFFF20BEDEEF06F020500AE1030EEE
:100DB0001F5CD8A0DEEF06F0E1EF06F0FFFFF1EFD9
:100DC00006F0FFFF8288FFFF82A0E9EF06F0ECEF5C
:100DD00006F0FFFFE3EF06F0FFFF000E206E000EAF
:100DE0001F6EFFFF8298190E116E5D0EFFFFE82E39
:100DF000FDD7112EFBD785EF05F001EF00F0FFFFC7
:100E000024EC0AF0010E036E010EC7EC08F0230E6D
:100E1000096E060E0A6E3CEC09F002EC09F0190EA0
:100E20000F6E5D0EFFFFE82EFDD70F2EFBD715507E
:100E30001918D8A41EEF07F021EF07F0FFFF7AEF93
:100E400007F0FFFF16501A18D8A429EF07F02CEF6F
:100E500007F0FFFF7AEF07F0FFFF17501B18D8A429
:100E600034EF07F037EF07F0FFFF7AEF07F0FFFFEF
:100E700018501C18D8A43FEF07F042EF07F0FFFF0F
:100E80007AEF07F0FFFF24EC0AF0010E036E010E6B
:100E9000C7EC08F0520E096E060E0A6E3CEC09F023
:100EA00002EC09F0A1EC09F07A0E0F6ED40EFFFFF0
:100EB000E82EFDD70F2EFBD700D024EC0AF0010E50
:100EC000036E010EC7EC08F0120E096E060E0A6ED4
:100ED0003CEC09F0FFFF010E106EF40E0F6EA80E31
:100EE000FFFFE82EFDD70F2EFBD7102EF9D700D02D
:100EF000A9EF07F0FFFF24EC0AF0010E036E010ECC
:100F0000C7EC08F0990E096E060E0A6E3CEC09F06B
:100F100082884A0E0F6E180EFFFFE82EFDD70F2EA7
:100F2000FBD700D082984A0E0F6E180EFFFFE82EF6
:100F3000FDD70F2EFBD700D082884A0E0F6E180EF9
:100F4000FFFFE82EFDD70F2EFBD700D082986AEF67
:100F500007F0FFFF1200FFFFFFFF8CEC08F01528E1
:100F6000D8A4B5EF07F0B8EF07F0FFFF03EF08F0E4
:100F7000FFFF1628D8A4BFEF07F0C2EF07F0FFFF6E
:100F800003EF08F0FFFF1728D8A4C9EF07F0CCEF54
:100F900007F0FFFF03EF08F0FFFF1828D8A4D3EFF6
:100FA00007F0D6EF07F0FFFF03EF08F0FFFF310E69
:100FB000016E000ED0EC09F0050E046EDF0EFFFF8F
:100FC000E82EFDD7042EFBD7340E016E010ED0ECB7
:100FD00009F0050E046EDF0EFFFFE82EFDD7042E8C
:100FE000FBD7370E016E020ED0EC09F0050E046E31
:100FF000DF0EFFFFE82EFDD7042EFBD72A0E016E71
:10100000030ED0EC09F0FFFF1200FFFFFFFF086E98
:1010100008500F0B026E0850F00B036E838C0338E0
:101020000F0B4CEC08F0838E820E056E330E046EAF
:10103000FFFF00F00406D8A0050605BE28EF08F063
:10104000055009E10404D8A028EF08F02BEF08F0C0
:10105000FFFF18EF08F0FFFF839E02504CEC08F0F2
:10106000838E820E076E330E066EFFFF00F00606BB
:10107000D8A0070607BE45EF08F0075009E10604AF
:10108000D8A045EF08F048EF08F0FFFF35EF08F073
:10109000FFFF839E1200FFFFFFFF016E01A053EFD1
:1010A00008F056EF08F0FFFF5AEF08F0FFFF8188C5
:1010B0005CEF08F0FFFF8198FFFF01A262EF08F0EC
:1010C00065EF08F0FFFF69EF08F0FFFF818A6BEF23
:1010D00008F0FFFF819AFFFF01A471EF08F074EFA1
:1010E00008F0FFFF78EF08F0FFFF818C7AEF08F03F
:1010F000FFFF819CFFFF01A680EF08F083EF08F05F
:10110000FFFF87EF08F0FFFF818E89EF08F0FFFFF8
:10111000819EFFFF1200FFFFFFFF050E026EDF0E34
:10112000FFFFE82EFDD7022EFBD7000E1BEC0AF0C6
:10113000156E050E026EDF0EFFFFE82EFDD7022EA4
:10114000FBD7010E1BEC0AF0166E050E026EDF0EC9
:10115000FFFFE82EFDD7022EFBD7020E1BEC0AF094
:10116000176E050E026EDF0EFFFFE82EFDD7022E72
:10117000FBD7030E1BEC0AF0186E050E026EDF0E95
:10118000FFFFE82EFDD7022EFBD71200FFFFFFFF67
:10119000046E0404D8A4CFEF08F0D2EF08F0FFFFEC
:1011A000E4EF08F0FFFF03507F0F076E07380F0BC7
:1011B000056E07500F0B066E05500CEC0AF006503A
:1011C0000CEC0AF0FFEF08F0FFFF020E0418D8A4A1
:1011D000ECEF08F0EFEF08F0FFFFFFEF08F0FFFF84
:1011E0000350BF0F076E07380F0B056E07500F0B2C
:1011F000066E05500CEC0AF006500CEC0AF0FFFFEE
:101200001200FFFFFFFF000E226E000E216EFFFF97
:10121000190E2124D96E000E2220DA6E51EC03F053
:10122000DF6E2128036E020EC7EC08F0190E212490
:10123000D96E000E2220DA6EDF5006EC08F07A0E2E
:10124000096ED40EFFFFE82EFDD7092EFBD700D084
:10125000214A222A22BE36EF09F022500AE1040E6A
:10126000215CD8A036EF09F039EF09F0FFFF07EF56
:1012700009F0FFFF1200FFFFFFFF000E0E6E000ED1
:101280000D6E55EF09F0FFFF0D5009240B6E0E5047
:101290000A200C6E0BC0F6FF0CC0F7FF0800FFFF22
:1012A000F55006EC08F00D4A0E2AFFFF0D500924F8
:1012B0000B6E0E500A200C6E0BC0F6FF0CC0F7FF31
:1012C0000800FFFFF5500009D8A469EF09F06CEFA2
:1012D00009F0FFFF43EF09F0FFFF1200FFFFFFFFE0
:1012E000000E4CEC08F0030E0CEC0AF0FA0EFFFFB7
:1012F00000F0E82EFCD7030E0CEC0AF0030E036E90
:10130000AD0EFFFFE82EFDD7032EFBD700D0030E56
:101310000CEC0AF0020E0CEC0AF0020E0CEC0AF0D7
:10132000080E0CEC0AF0000E0CEC0AF00C0E0CECA3
:101330000AF0000E0CEC0AF0060E0CEC0AF012009B
:10134000FFFFFFFF19C001F0000ED0EC09F0050E01
:10135000046EDF0EFFFFE82EFDD7042EFBD71AC068
:1013600001F0010ED0EC09F0050E046EDF0EFFFF58
:10137000E82EFDD7042EFBD71BC001F0020ED0ECE7
:1013800009F0050E046EDF0EFFFFE82EFDD7042ED8
:10139000FBD71CC001F0030ED0EC09F01200FFFFD8
:1013A000FFFF026E02C0A9FF01C0A8FFA69EA6848F
:1013B000F2CF03F0000EF26E550EA76EAA0EA76EC6
:1013C000A68203C0F2FFA694FFFFA1A8EAEF09F0EE
:1013D000EDEF09F0FFFFE4EF09F0FFFFA198120025
:1013E000FFFF5A0EF66E140EF76E000EF86E00EE4A
:1013F00015F010EE0AF00900F5CFEEFFE550E150D0
:10140000FAE1226A216A206A1F6A000EF86E060E4F
:10141000F76E000160EF05F0FFFF026E839C025043
:101420004CEC08F0838EC80EFFFF00F0E82EFCD7CE
:10143000839E1200FFFFFFFF016E01C0A9FFA69E61
:10144000A680A8501200FFFFFFFF000E0CEC0AF070
:10145000010E0CEC0AF01200FFFF31343431585801
:0614600058580A00FFFFCE
:020000040020DA
:08000000FFFFFFFFFFFFFFFF00
:020000040030CA
:0E000000FF270F0EFF0185FF0FC00FE00F401E
:00000001FF
